:100000000C94B4000C94D1000C94D1000C94D10049
:100010000C94D1000C94D1000C94D1000C94D1001C
:100020000C94D1000C94D1000C94D1000C94DE02FD
:100030000C94D1000C94D1000C94D1000C94D100FC
:100040000C94D1000C94D1000C94D1000C94D100EC
:100050000C94D1000C94D1000C94D1000C94D100DC
:100060000C9495010C94D1007F8285888B8F92959A
:10007000989B9EA1A4A7AAADB0B3B6B8BBBEC1C39E
:10008000C6C8CBCDD0D2D5D7D9DBDDE0E2E4E5E7F9
:10009000E9EBECEEEFF1F2F4F5F6F7F8F9FAFBFB29
:1000A000FCFDFDFEFEFEFEFEFFFEFEFEFEFEFDFD75
:1000B000FCFBFBFAF9F8F7F6F5F4F2F1EFEEECEBF6
:1000C000E9E7E5E4E2E0DDDBD9D7D5D2D0CDCBC896
:1000D000C6C3C1BEBBB8B6B3B0ADAAA7A4A19E9B10
:1000E0009895928F8B8885827F7C7976736F6C6907
:1000F0006663605D5A5754514E4B484643403D3B02
:10010000383633312E2C29272523211E1C1A191786
:10011000151312100F0D0C0A090807060504030336
:1001200002010100000000000000000000000101C9
:100130000203030405060708090A0C0D0F10121329
:100140001517191A1C1E21232527292C2E31333669
:10015000383B3D404346484B4E5154575A5D6063CF
:1001600066696C6F7376797C11241FBECFEFD8E07F
:10017000DEBFCDBF11E0A0E0B1E0E4E0F7E002C0F7
:1001800005900D92A830B107D9F725E0A8E0B1E0BD
:1001900001C01D92A43EB207E1F70E944D030C94EA
:1001A00080030C94000010929701449A459AE9EB61
:1001B000F0E080818E7F808380818D7F808388E4E2
:1001C0008093B80085E48093BC000895880F8093E5
:1001D000BA000895433468F5909197019111FCCFCE
:1001E00091E0909397019FEF9093080110924F0137
:1001F000940F90934E01880F81608093960185EE55
:100200008093BC00809197018130E1F380914F0190
:10021000841710F440914F01A0E5B1E0962FFB0147
:100220008E2F891B841718F48D918193F9CF842F19
:10023000089580E008954334B0F5909197019111AD
:10024000FCCF32E0309397013FEF309308011092DA
:100250004F0140934E01562FA0E5B1E0FB013E2F28
:10026000351B341718F431913D93F9CF482F50E0E6
:10027000440F551F4093960185EE8093BC002223C6
:1002800021F0809197018230D1F3809108018F3F56
:1002900079F080910801803241F08091080180332B
:1002A00031F094E005C091E003C092E001C093E01A
:1002B000892F0895633498F420919701243089F4AC
:1002C00060930A01282FACE0B1E0FC018E2F821B65
:1002D000861718F481918D93F9CF80E0089581E01D
:1002E000089582E008959093930180939201089578
:1002F00090939501809394010895882311F085ECE3
:1003000001C085E88093BC00089585ED8093BC0012
:100310008091BC0084FDFCCF10929701089585EC7C
:100320008093BC001092970108951F920F920FB610
:100330000F9211242F933F934F935F936F937F936B
:100340008F939F93AF93BF93EF93FF938091B900E7
:10035000887F803609F495C068F5883209F45BC05F
:1003600090F4803109F454C038F4882309F4EEC0C5
:10037000883009F44DC0EEC0883109F44CC0803299
:1003800009F45EC0E7C0803409F469C048F48033E2
:1003900009F456C0883309F0DDC080930801A1C07C
:1003A000803509F450C0883509F45EC0883409F0FE
:1003B000D1C0CEC0883909F4BFC0A8F4883709F489
:1003C00060C038F4883609F45CC0803709F459C03D
:1003D000C1C0883809F4B0C0803909F458C08038E9
:1003E00009F0B8C054C0803B09F47EC038F4803AAC
:1003F00009F45FC0883A09F477C0ACC0803C09F4C6
:100400009FC0883C09F49CC0883B09F482C0A2C00C
:100410008091960111C090914F0180914E019817E3
:1004200008F096C0E0914F0181E08E0F80934F015C
:10043000F0E0E05BFE4F80818093BB0085EC7DC0E7
:100440008093080185C0E0914F0181E08E0F809379
:100450004F018091BB00F0E0E05BFE4F8083909104
:100460004F0180914E0165C0E0914F0181E08E0FF8
:1004700080934F018091BB00F0E0E05BFE4F8083F2
:1004800067C083E08093970110920901D7CF8091D4
:100490000901823408F050C0E091090181E08E0F1B
:1004A000809309018091BB00F0E0EE55FE4F808300
:1004B000C5CF80910901823430F4E0910901F0E068
:1004C000EE55FE4F10820E9485016091090170E097
:1004D000E0919201F091930182EA91E009951092E6
:1004E00009010E948F0136C084E080939701109229
:1004F0000B0110920A01E0919401F0919501099588
:1005000080910A01811105C081E080930A01109257
:100510000C01E0910B0181E08E0F80930B01F0E064
:10052000E45FFE4F80818093BB0090910B0180912E
:100530000A01981708F482CF85E88093BC000AC0AE
:1005400085EC8093BC001092970104C010920801C2
:100550000E948501FF91EF91BF91AF919F918F9183
:100560007F916F915F914F913F912F910F900FBEAF
:100570000F901F9018950895ECE7F0E080E48083D9
:10058000AAE7B0E080E88C938C9183608C938081A3
:10059000806480838081806280838C9180688C936A
:1005A0008C9180648C93808180830895EAE7F0E0E9
:1005B0008081806480838091790008951F920F92DA
:1005C0000FB60F9211242F933F934F935F936F9326
:1005D0007F938F939F93AF93BF93CF93DF93EF93CB
:1005E000FF93C091A001D091A10180E090E00E9412
:1005F000D602CC51DE4F88838091A0019091A10159
:10060000019693709093A1018093A001809198012D
:1006100090919901A0919A01B0919B01FD01E85937
:10062000FF4F8491E091A001F091A101E80FF11D2D
:10063000F370EC51FE4F80818BB94091980150913D
:10064000990160919A0170919B01809101019091B3
:100650000201A0910301B0910401840F951FA61F10
:10066000B71FBB278093980190939901A0939A019B
:10067000B0939B01FF91EF91DF91CF91BF91AF912B
:100680009F918F917F916F915F914F913F912F91AA
:100690000F900FBE0F901F901895F89480918100D5
:1006A0008861809381008BE390E090938700809332
:1006B000860080916F00826080936F00809181003E
:1006C00082608093810078948FEF8AB917B884B9DB
:1006D0000E94D30081E00E94E6008BEB92E00E9432
:1006E00073010E94BC0283E0809300012FEF80E73A
:1006F00092E0215080409040E1F700C00000F6CF2A
:04070000F894FFCF9B
:08070400036F0000000140003A
:00000001FF
