:100000000C94B4000C94D1000C94D1000C94D10049
:100010000C94D1000C94D1000C94D1000C94D1001C
:100020000C94D1000C94D1000C94D1000C940603D4
:100030000C94D1000C94D1000C94D1000C94D100FC
:100040000C94D1000C94D1000C94D1000C94D100EC
:100050000C94D1000C94D1000C94D1000C94D100DC
:100060000C9495010C94D1007F8285888B8F92959A
:10007000989B9EA1A4A7AAADB0B3B6B8BBBEC1C39E
:10008000C6C8CBCDD0D2D5D7D9DBDDE0E2E4E5E7F9
:10009000E9EBECEEEFF1F2F4F5F6F7F8F9FAFBFB29
:1000A000FCFDFDFEFEFEFEFEFFFEFEFEFEFEFDFD75
:1000B000FCFBFBFAF9F8F7F6F5F4F2F1EFEEECEBF6
:1000C000E9E7E5E4E2E0DDDBD9D7D5D2D0CDCBC896
:1000D000C6C3C1BEBBB8B6B3B0ADAAA7A4A19E9B10
:1000E0009895928F8B8885827F7C7976736F6C6907
:1000F0006663605D5A5754514E4B484643403D3B02
:10010000383633312E2C29272523211E1C1A191786
:10011000151312100F0D0C0A090807060504030336
:1001200002010100000000000000000000000101C9
:100130000203030405060708090A0C0D0F10121329
:100140001517191A1C1E21232527292C2E31333669
:10015000383B3D404346484B4E5154575A5D6063CF
:1001600066696C6F7376797C11241FBECFEFD8E07F
:10017000DEBFCDBF11E0A0E0B1E0E2E7F7E002C0F2
:1001800005900D92AA30B107D9F725E0AAE0B1E0B9
:1001900001C01D92A63EB207E1F70E9487030C94AE
:1001A000B7030C94000010929901449A459AE9EB28
:1001B000F0E080818E7F808380818D7F808388E4E2
:1001C0008093B80085E48093BC000895880F8093E5
:1001D000BA000895433468F5909199019111FCCFCC
:1001E00091E0909399019FEF90930A011092510131
:1001F000940F90935001880F81608093980185EE51
:100200008093BC00809199018130E1F3809151018C
:10021000841710F440915101A2E5B1E0962FFB0143
:100220008E2F891B841718F48D918193F9CF842F19
:10023000089580E008954334B0F5909199019111AB
:10024000FCCF32E0309399013FEF30930A011092D6
:10025000510140935001562FA2E5B1E0FB013E2F22
:10026000351B341718F431913D93F9CF482F50E0E6
:10027000440F551F4093980185EE8093BC002223C4
:1002800021F0809199018230D1F380910A018F3F52
:1002900079F080910A01803241F080910A01803327
:1002A00031F094E005C091E003C092E001C093E01A
:1002B000892F0895633498F420919901243089F4AA
:1002C00060930C01282FAEE0B1E0FC018E2F821B61
:1002D000861718F481918D93F9CF80E0089581E01D
:1002E000089582E008959093950180939401089574
:1002F00090939701809396010895882311F085ECDF
:1003000001C085E88093BC00089585ED8093BC0012
:100310008091BC0084FDFCCF10929901089585EC7A
:100320008093BC001092990108951F920F920FB60E
:100330000F9211242F933F934F935F936F937F936B
:100340008F939F93AF93BF93EF93FF938091B900E7
:10035000887F803609F495C068F5883209F45BC05F
:1003600090F4803109F454C038F4882309F4EEC0C5
:10037000883009F44DC0EEC0883109F44CC0803299
:1003800009F45EC0E7C0803409F469C048F48033E2
:1003900009F456C0883309F0DDC080930A01A1C07A
:1003A000803509F450C0883509F45EC0883409F0FE
:1003B000D1C0CEC0883909F4BFC0A8F4883709F489
:1003C00060C038F4883609F45CC0803709F459C03D
:1003D000C1C0883809F4B0C0803909F458C08038E9
:1003E00009F0B8C054C0803B09F47EC038F4803AAC
:1003F00009F45FC0883A09F477C0ACC0803C09F4C6
:100400009FC0883C09F49CC0883B09F482C0A2C00C
:100410008091980111C090915101809150019817DD
:1004200008F096C0E091510181E08E0F8093510158
:10043000F0E0EE5AFE4F80818093BB0085EC7DC0DA
:1004400080930A0185C0E091510181E08E0F809375
:1004500051018091BB00F0E0EE5AFE4F80839091F5
:1004600051018091500165C0E091510181E08E0FF2
:10047000809351018091BB00F0E0EE5AFE4F8083E3
:1004800067C083E08093990110920B01D7CF8091D0
:100490000B01823408F050C0E0910B0181E08E0F17
:1004A00080930B018091BB00F0E0EC55FE4F808300
:1004B000C5CF80910B01823430F4E0910B01F0E064
:1004C000EC55FE4F10820E94850160910B0170E097
:1004D000E0919401F091950184EA91E009951092E0
:1004E0000B010E948F0136C084E080939901109225
:1004F0000D0110920C01E0919601F0919701099580
:1005000080910C01811105C081E080930C01109253
:100510000E01E0910D0181E08E0F80930D01F0E05E
:10052000E25FFE4F80818093BB0090910D0180912E
:100530000C01981708F482CF85E88093BC000AC0AC
:1005400085EC8093BC001092990104C010920A01BE
:100550000E948501FF91EF91BF91AF919F918F9183
:100560007F916F915F914F913F912F910F900FBEAF
:100570000F901F9018958091A401813049F028F0C8
:10058000813149F08132D9F008951092080108951F
:100590008093080108958091A6019091A701982762
:1005A00089279827092E000CAA0BBB0B8093010109
:1005B00090930201A0930301B093040108958091E8
:1005C000A701809300010895ECE7F0E080E48083C8
:1005D000AAE7B0E080E88C938C9183608C93808153
:1005E000806480838081806280838C9180688C931A
:1005F0008C9180648C93808180830895EAE7F0E099
:100600008081806480838091790008951F920F9289
:100610000FB60F9211242F933F934F935F936F93D5
:100620007F938F939F93AF93BF93CF93DF93EF937A
:10063000FF9380910801882309F454C0C091A2015E
:10064000D091A30180E090E00E94FE02CA51DE4FEB
:1006500088838091A2019091A30101969370909359
:10066000A3018093A20180919A0190919B01A09196
:100670009C01B0919D01FD01E859FF4FE49120914B
:1006800000018091A2019091A301E29FF001112449
:10069000EF2FFF0FFF0BE595E595E80FF91FF370BE
:1006A000EA51FE4F80818BB940919A0150919B0194
:1006B00060919C0170919D018091010190910201D6
:1006C000A0910301B0910401840F951FA61FB71FCD
:1006D000BB2780939A0190939B01A0939C01B093B8
:1006E0009D0102C08FE78BB9FF91EF91DF91CF9110
:1006F000BF91AF919F918F917F916F915F914F913A
:100700003F912F910F900FBE0F901F901895F89466
:10071000809181008861809381008BE390E09093C9
:1007200087008093860080916F00826080936F00C5
:100730008091810082608093810078940E94E4021D
:100740008FEF8AB917B884B90E94D30080E20E9463
:10075000E6008BEB92E00E9473012FEF80E792E0BE
:10076000215080409040E1F700C00000F6CFF8949F
:02077000FFCFB9
:0A077200FF6F0000000140000100CD
:00000001FF
